:100000000C9490000C94AD000C94AD000C94AD00D9
:100010000C94AD000C94AD000C94AD000C94AD00AC
:100020000C94AD000C94AD000C94AD000C94AD009C
:100030000C94AD000C94AD000C94E2080C94AD004F
:100040000C94AD000C94AD000C9442010C94AD00E6
:100050000C9412010C94AD000C94AD000C94AD0006
:100060000C94F7010C94AD001D0280028002800206
:100070008002800280028002800280028002800270
:1000800080028002800280022602800280028002BA
:1000900080028002800280023F0280028002800291
:1000A000800280028002800226028002800280029A
:1000B00080028002800280023F0280028002800271
:1000C000800280028002800243028002800280025D
:1000D0008002800280028002470280028002800249
:1000E00080028002800280024D0280028002800233
:1000F000800280028002800251028002800280021F
:10010000800280028002800218021B072007250758
:100110002A072F07340739074207460769076E0782
:1001200011241FBECFEFD8E0DEBFCDBF11E0A0E0AD
:10013000B1E0E8E4FCE102C005900D92AE35B107F4
:10014000D9F722E0AEE5B1E001C01D92A33BB207B2
:10015000E1F70E94BE080C94220E0C9400006093FC
:100160007001089560936B010895CF92DF92EF9232
:10017000FF920F931F93CF938C016A017B01C22FD3
:1001800060E074E981E190E0A70196010E94050B0F
:100190002150310910937901009378011092C00029
:1001A00088ED8093C10086E08093C2003093C50043
:1001B0002093C40010927C0110927B01C093040133
:1001C0007894CF911F910F91FF90EF90DF90CF9097
:1001D000089520917B01211124C038E43093C1009F
:1001E00010927A01662361F0E82FF92FADEFB1E0AC
:1001F00081918D932F5F20937A016213F9CF262F7F
:1002000081E080937B0120937C01E0ECF0E0808131
:1002100085FFFDCF8091FD018093C60081E0809332
:100220007A0108951F920F920FB60F9211248F93A7
:100230009F93EF93FF9380917B018823A9F0E09136
:100240007A0181E08E0F80937A01F0E0E350FE4F57
:1002500080818093C60090917A0180917C019817EB
:1002600040F010927B0105C088ED8093C100109290
:100270007D01FF91EF919F918F910F900FBE0F9095
:100280001F9018951F920F920FB60F9211242F9363
:100290003F934F935F936F937F938F939F93AF930E
:1002A000BF93EF93FF9360917D018091C600E62F8D
:1002B000F0E0ED58FD4F808390910401891309C04F
:1002C000E0917801F091790183E792E0099560E08F
:1002D00005C06E3118F010927D0103C06F5F60930E
:1002E0007D01FF91EF91BF91AF919F918F917F9190
:1002F0006F915F914F913F912F910F900FBE0F9093
:100300001F901895CF93DF93EC019A01AB011092E7
:10031000BA001092BC001092BB008AEF000081501E
:10032000E9F71092BA0060E070E489E191E00E9480
:10033000050BDA01C9014097A109B109B695A79546
:10034000979587958093B800E9EBF0E080818C7FEA
:10035000808385EC8093BC0010927E01D09376015F
:10036000C09375017894DF91CF91089590917E01AB
:10037000911122C01092BC00EEE7F1E091E0908371
:10038000880F8183413208F040E2442371F0A62FA8
:10039000B72FE4E8F1E02FEF240F30E02B573E4F6A
:1003A0008D918193E217F307D9F74093810185EE90
:1003B0008093BC0081E0089580E0089590917E01D3
:1003C000911113C01092BC00EEE7F1E092E090832F
:1003D000880F81608183613208F060E2609383015D
:1003E00085EE8093BC0081E0089580E008951F921F
:1003F0000F920FB60F9211242F933F934F935F9359
:100400006F937F938F939F93AF93BF93EF93FF93DC
:100410008091B900E82FE87F8E2F90E0FC0138979B
:10042000E135F10508F06CC0EC5CFF4F0C94270B34
:100430006091820161114BC058C0EEE7F1E081810B
:100440008093BB001282148285EC61C0AEE7B1E0FC
:100450001296EC91129713968C91E81760F481E054
:100460008E0F80938001F0E0E258FE4F86818093EA
:10047000BB0085EC4CC010927E0185ED48C0109207
:100480007E0185ED44C010927E0185EC40C08091D4
:100490008301811139C085E83AC010927E0185ED53
:1004A00036C0AEE7B1E01496EC91149781E08E0F60
:1004B00014968C9314979091BB00F0E0E258FE4F95
:1004C00096A315969C91891708F185E820C0E4EA67
:1004D000F1E0A3E5B2E02FEF260F30E02B553E4FC1
:1004E00081918D93E217F307D9F7E0917501F091AF
:1004F000760183E592E0099510927E0185ED07C0B3
:1005000010927E0185ED03C085EC01C085EC8093DF
:10051000BC00FF91EF91BF91AF919F918F917F911F
:100520006F915F914F913F912F910F900FBE0F9060
:100530001F901895009739F410927E0010927C005D
:1005400010927A00089510927E0010927C0025E8A7
:1005500020937A00EDECF1E02DEF31E041E080FFF7
:1005600002C0428301C01282969587951182108243
:100570003396E217F30799F710927401089580916A
:1005800074018823E9F080917A0084FF47C0EAE78C
:10059000F0E0808180618083209178003091790043
:1005A0008091730190E0FC01EE0FFF1F8E0F9F1FE3
:1005B000FC01E353FE4F31832083109274010895B0
:1005C00081E080937401209173012F5F2093730168
:1005D00030E1203108F020E0822F90E0FC01EE0FA6
:1005E000FF1F8E0F9F1FFC01E353FE4F8281882364
:1005F00019F02093730103C02F5F315051F78091A0
:100600007301883021F488EC80937C0002C08093D1
:100610007C00EAE7F0E08081806480830895809325
:1006200072018230D9F482E3809380008AE1809362
:100630008100109285001092840093EB90938700C4
:100640008FEF80938600109289001092880090931B
:100650008B0080938A001092700008958130D1F44D
:1006600082E3809380008BE180938100109285006B
:100670001092840096E1909387008FE78093860024
:10068000109289001092880090938B0080938A00CA
:10069000109270000895CF92DF92EF92FF92CF9365
:1006A000DF936A017B0190917201923009F03FC0A3
:1006B000811113C080E090E0A8E4B3E480930001CE
:1006C00090930101A0930201B093030183EB809307
:1006D0008B008FEF80938A0085C020E030E0A90175
:1006E000C701B6010E94AD0988230CF47BC020E04D
:1006F00030E044E353E4C701B6010E94930A1816A0
:100700000CF470C02DEC3CEC4CEC51E4C701B6018C
:100710000E94980A20E030E040E954E40E94410938
:100720000E94B209CFEFD3EBC61BD70B41C091306B
:10073000E9F5811113C086E180938B008FE78093E8
:100740008A0080E090E0A8E4B3E4809300019093F5
:100750000101A0930201B093030144C020E030E006
:10076000A901C701B6010E94AD098823DCF120E090
:1007700030E044E353E4C701B6010E94930A18161F
:100780008CF12DEC3CEC4CE450E4C701B6010E9426
:10079000980A20E030E040E153E40E9441090E94C1
:1007A000B209CFE7D6E1C61BD70B02C0C0E0D0E04C
:1007B000209100013091010140910201509103010B
:1007C000C701B6010E94AD09882361F0C092000103
:1007D000D0920101E0920201F0920301D0938B00CC
:1007E000C0938A00DF91CF91FF90EF90DF90CF9080
:1007F00008958091660190916701883E934020F0B2
:1008000010926701109266018091640190916501D8
:10081000843F914020F01092650110926401EDEC4C
:10082000F1E08681978190936301809362018185D5
:100830009285909361018093600108959EEF980FD7
:10084000923028F5662391F048B121E030E0B901FB
:1008500002C0660F771F8A95E2F7CB01962F90951D
:10086000942398B997B1892B87B9089547B121E0AE
:1008700030E0B90102C0660F771F8A95E2F7CB011D
:10088000962F9095942397B998B1892B88B908959C
:10089000E4ECF1E01082118212821382148215823C
:1008A0008AEF86838CED95E0908787830895419A3F
:1008B000409A82E084BD95E095BD16BC91E197BD5C
:1008C00018BC80936E008CE090E00E949A0284EF46
:1008D00091E0909369018093680181E00E940F0389
:1008E00040EA56E861E070E08FEA90E00E94820101
:1008F0002DE040E056E960E070E082EB90E00E947D
:10090000B5000E9448046CE085E091E00E94E90097
:100910000895EF920F931F93CF93DF93CDB7DEB778
:1009200028970FB6F894DEBF0FBECDBF902F309141
:10093000710151E0530F509371013054398353309A
:1009400010F010927101EE2DE370EE0FEE0F637058
:100950000E2F062B50E4859FF0011124E02B93709D
:1009600080E1989F800111240E2B0A8320FB47F918
:100970004B83432704270C8344E0BE016F5F7F4F06
:1009800089E50E94B60128960FB6F894DEBF0FBE27
:10099000CDBFDF91CF911F910F91EF90089560919E
:1009A00053024091700150E04150510942305105CD
:1009B00084F0362F81E090E021E0FC01ED5AFD4FFC
:1009C000808138272F5F822F90E084179507ACF342
:1009D00003C0362F81E090E0FC01ED5AFD4F80818D
:1009E000831719F010927001089510926D0184E63A
:1009F00080936F01613C09F453C0623C09F48DC0DF
:100A0000603C09F0C7C0A3E5B2E011968C91119744
:100A1000EDE3F2E0982F9295969596959370948BCE
:100A2000282F207330E035952795359527953595F6
:100A3000279535952795258B282F2C7030E03595F7
:100A4000279535952795238B8370828B12968C91F1
:100A50001297878713962C91139730E0220F331F3C
:100A6000220F331F14968C911497982F9295969578
:100A700096959370292B318320838F7320E4829F76
:100A8000C001112415962C91322F3C7F832B918726
:100A9000808721FB882780F986872170218B7AC087
:100AA000A3E5B2E011962C91119730E0220F331F8D
:100AB000220F331F12968C911297EDE3F2E0982FDC
:100AC0009295969596959370292B318320838F73F9
:100AD00020E1829FC001112413962C911397322F8D
:100AE00032953F70832B938382832F7080E4289FFD
:100AF0009001112414968C911497982F96959695A1
:100B0000292B35832483837090E0982F88271596AE
:100B10002C91822B978386833DC0A3E5B2E011968A
:100B20008C91119790E0880F991F880F991F12964A
:100B30002C911297EDE3F2E0322F329536953695EF
:100B40003370832B918380832F7380E4289F9001DF
:100B5000112413968C911397982F96959695292B7F
:100B600033872287837090E0982F882714962C91E2
:100B70001497822B880F991F880F991F15962C9117
:100B8000322F3295369536953370832B958784872F
:100B90002F73208B1092700108950F931F93CF93A2
:100BA000DF93CDB7DEB728970FB6F894DEBF0FBE40
:100BB000CDBF813158F010917302A82FB0E0139788
:100BC000A230B105E4F4912F21E027C08CE0E2E1EE
:100BD000F1E0ADEFB1E001900D928A95E1F7EDEF14
:100BE000F1E001900020E9F73197BF016D5F71409E
:100BF0008DEF91E00E94E90010926B01E4C1912F0A
:100C000021E0E22FF0E0ED58FD4F308193272F5F78
:100C1000422F50E04A175B07A4F330E0F901ED588A
:100C2000FD4F50815053F901EB58FD4F4081405327
:100C3000E4E65E9F400D1124F901EC58FD4F208140
:100C4000220F2056322F330F330F230F240F291773
:100C500019F11F928F931F922F931F929F938EE1F2
:100C600091E09F938F930DEF11E01F930F930E94DC
:100C7000380BF80101900020E9F73197BF016D5F53
:100C80007140C8010E94E90010926B010FB6F89400
:100C9000DEBF0FBECDBF97C184E680936A011634D4
:100CA00029F0123539F0123469F408C081E08093DC
:100CB000C4010AC082E08093C40106C083E080932F
:100CC000C40102C01092C401E3E7F2E08181880F01
:100CD0008056982F990F990F890FA4ECB1E092815B
:100CE0009053890F11968C9311979381905314E62A
:100CF00085818053919F800D1124982F8481880FC6
:100D00008056282F220F220F820F890F16968C9360
:100D10001697268130E02053310988EE93E0289F12
:100D2000A001299F500D389F500D11249185892FC6
:100D300090E0C097840F951F478150E040535109C0
:100D4000149F9001159F300D1124280F391F908595
:100D5000892F90E0C097AC01440F551F880F991F51
:100D6000880F991F880F991F840F951F820F931F5B
:100D700018969C938E93179782858C3429F0823530
:100D800039F0853469F408C081E08093C7010AC056
:100D900082E08093C70106C083E08093C70102C050
:100DA0001092C70180917E028F3421F481E08093FC
:100DB000C60102C01092C60180917F028F3421F4D7
:100DC00081E08093C90102C01092C901E3E7F2E01B
:100DD0008585805380935F018685805380935E0173
:100DE0008785880F8056982F990F990F890F9089C2
:100DF0009053890F9189963421F493E09093C80120
:100E00000EC0903521F492E09093C80108C093354C
:100E100021F491E09093C80102C01092C801082FFC
:100E200010E0F8013197EB30F10508F05CC0EB57AA
:100E3000FF4F0C94270B60913F027091400255C008
:100E4000609143027091440250C0609141027091E0
:100E500042024BC0609145027091460246C06091CB
:100E600047027091480241C06091490270914A0264
:100E70003CC0EDE3F2E096859170792F60E09785B4
:100E8000692B33C060914D0270E02FC0EDE3F2E0BA
:100E9000958948EE53E0949F9001959F300D112461
:100EA000918944E6949F200D311D11249389290FC7
:100EB000311D428950E0BA01660F771F440F551F5C
:100EC000440F551F440F551F640F751F620F731F8A
:100ED0000CC0609162017091630107C06091600174
:100EE0007091610102C060E070E0EDE3F2E04285E4
:100EF000538524853585240F351F9081418150917C
:100F00006F01511103C058E5E0E002C05FE4E0E08A
:100F10007F936F931F928F933F932F934F939F9342
:100F200083E08F9387EE8F93EF935F9388E391E055
:100F30009F938F930DEF11E01F930F930E94380B37
:100F4000F801808101900020E9F731978F010D5F52
:100F500011400FB6F894DEBF0FBECDBF023060F077
:100F6000EEEFF1E00250202F30E021503E4F919102
:100F700089272E173F07D9F71F928F9383E591E0BA
:100F80009F938F938E010F5F1F4F1F930F930E94AC
:100F9000380BB8018DEF91E00E942D0BEDEFF1E0E1
:100FA00001900020E9F73197BF016D5F71408DEF2F
:100FB00091E00E94E90010926B010F900F900F904A
:100FC0000F900F900F9028960FB6F894DEBF0FBECB
:100FD000CDBFDF91CF911F910F910895EF920F93A5
:100FE0004E9910C05D9A8091680190916901892B9A
:100FF00009F071C040E050E064EB72E481E00E94CF
:101000004B0369C080916F01882309F456C0809119
:10101000C801833059F0823031F48091510281301F
:1010200009F04BC003C0813009F047C080916A01CC
:101030008823A1F18091CA01853BA8F45D9A809133
:10104000680190916901892B09F045C06091CA013E
:1010500070E080E090E00E94E309AB01BC0181E018
:101060000E944B0338C08091CB019091CC01811537
:101070009440A0F45D9A8091680190916901892B58
:1010800051F56091CA0170E080E090E00E94E309B0
:10109000AB01BC0181E00E944B031DC088EC90E0D5
:1010A000909369018093680140E050E06AE773E43F
:1010B00080E00E944B035D980EC088EC90E0909316
:1010C00069018093680140E050E06AE773E480E0E2
:1010D0000E944B035D9880917001882319F00E9453
:1010E000CF0437C080916E01873098F110926E0165
:1010F00080916D018430D0F110926C0110927E01CC
:10110000809177018F5F8093770110926D0142E0AB
:1011100069E571E085E50E94B60114C067E089E5E4
:101120000E94DE010FC0E4ECF1E0E5800381228142
:101130004181608184810E94890480916D018F5F6B
:1011400080936D0181E090916C01911180E080931A
:101150006C0180916A01811102C00E944804809153
:101160006B01882341F00E94CD0505C080916C0180
:101170008111D4CFD8CF0F91EF90089515B884E0A6
:1011800084B918B883E087B980E48BB980E28AB962
:1011900099E088E10FB6F894A895809360000FBE9F
:1011A000909360000E94570460E082E00E941E0459
:1011B00060E083E00E941E04A8950E94EE070E9452
:1011C000F903FACF1F920F920FB60F9211242F93AB
:1011D0003F934F935F936F937F938F939F93AF93BF
:1011E000BF93EF93FF9380916601909167018F3FCA
:1011F0002FEF920729F00196909367018093660183
:1012000080916401909165018F3F2FEF920729F043
:101210000196909365018093640180916E018F3FE8
:1012200019F08F5F80936E0180916F01882319F010
:10123000815080936F0180916A01882319F0815059
:1012400080936A018091680190916901009729F06B
:10125000019790936901809368010E94BF02FF91FA
:10126000EF91BF91AF919F918F917F916F915F911E
:101270004F913F912F910F900FBE0F901F90189597
:101280005058BB27AA270E9458090C94590A0E945B
:101290004B0A38F00E94520A20F039F49F3F19F4AB
:1012A00026F40C94480A0EF4E095E7FB0C94420AED
:1012B000E92F0E946A0A58F3BA1762077307840776
:1012C000950720F079F4A6F50C948C0A0EF4E095BD
:1012D0000B2EBA2FA02D0B01B90190010C01CA01F0
:1012E000A0011124FF27591B99F0593F50F4503E9B
:1012F00068F11A16F040A22F232F342F4427585F8D
:10130000F3CF469537952795A795F0405395C9F7A4
:101310007EF41F16BA0B620B730B840BBAF091505C
:10132000A1F0FF0FBB1F661F771F881FC2F70EC0FB
:10133000BA0F621F731F841F48F4879577956795CE
:10134000B795F7959E3F08F0B0CF9395880F08F0BA
:101350009927EE0F9795879508950E941E0A08F425
:1013600081E008950E94720A88F09F5798F0B92F83
:101370009927B751B0F0E1F0660F771F881F991FCA
:101380001AF0BA95C9F714C0B13091F00E948C0AD6
:10139000B1E008950C948C0A672F782F8827B85FE6
:1013A00039F0B93FCCF3869577956795B395D9F722
:1013B0003EF490958095709561957F4F8F4F9F4F2C
:1013C0000895E89409C097FB3EF490958095709538
:1013D00061957F4F8F4F9F4F9923A9F0F92F96E981
:1013E000BB279395F695879577956795B795F111F6
:1013F000F8CFFAF4BB0F11F460FF1BC06F5F7F4F93
:101400008F4F9F4F16C0882311F096E911C07723A4
:1014100021F09EE8872F762F05C0662371F096E8AD
:10142000862F70E060E02AF09A95660F771F881F7C
:10143000DAF7880F9695879597F90895990F000820
:10144000550FAA0BE0E8FEEF16161706E807F90796
:10145000C0F012161306E407F50798F0621B730B31
:10146000840B950B39F40A2661F0232B242B252BB2
:1014700021F408950A2609F4A140A6958FEF811D55
:10148000811D089597F99F6780E870E060E00895F6
:101490009FEF80EC089500240A941616170618068C
:1014A0000906089500240A94121613061406050668
:1014B0000895092E0394000C11F4882352F0BB0FF9
:1014C00040F4BF2B11F460FF04C06F5F7F4F8F4F5C
:1014D0009F4F089557FD9058440F551F59F05F3F97
:1014E00071F04795880F97FB991F61F09F3F79F046
:1014F00087950895121613061406551FF2CF4695C8
:10150000F1DF08C0161617061806991FF1CF869549
:101510007105610508940895E894BB27662777272D
:10152000CB0197F908950E941E0A08F48FEF0895E1
:101530000E94AB0A0C94590A0E944B0A38F00E9490
:10154000520A20F0952311F00C94420A0C94480A98
:1015500011240C948D0A0E946A0A70F3959FC1F3BE
:10156000950F50E0551F629FF001729FBB27F00D51
:10157000B11D639FAA27F00DB11DAA1F649F6627A6
:10158000B00DA11D661F829F2227B00DA11D621FF5
:10159000739FB00DA11D621F839FA00D611D221FAF
:1015A000749F3327A00D611D231F849F600D211D93
:1015B000822F762F6A2F11249F5750409AF0F1F016
:1015C00088234AF0EE0FFF1FBB1F661F771F881F7F
:1015D00091505040A9F79E3F510580F00C94420A6B
:1015E0000C948D0A5F3FE4F3983ED4F3869577958B
:1015F0006795B795F795E7959F5FC1F7FE2B880F25
:10160000911D9695879597F90895A1E21A2EAA1B28
:10161000BB1BFD010DC0AA1FBB1FEE1FFF1FA217A2
:10162000B307E407F50720F0A21BB30BE40BF50B9F
:10163000661F771F881F991F1A9469F76095709528
:10164000809590959B01AC01BD01CF010895EE0FEF
:10165000FF1F0590F491E02D0994FB01DC010D9032
:101660000020E9F7119701900D920020E1F708950D
:10167000AEE0B0E0EEE3FBE00C94F90D0D891E89BD
:1016800086E08C831A8309838FEF9FE79E838D8387
:10169000AE01475E5F4F6F89788DCE0101960E9443
:1016A0005A0BEF81F885E00FF11F10822E96E4E0CF
:1016B0000C94150EABE0B0E0E0E6FBE00C94EB0D13
:1016C0006C017B018A01FC0117821682838181FFF4
:1016D000CCC1CE0101963C01F6019381F70193FD47
:1016E000859193FF81917F01882309F4BAC18532E6
:1016F00039F493FD859193FF81917F01853229F41F
:10170000B60190E00E94510DE7CF912C212C312C95
:10171000FFE1F315D8F08B3279F038F4803279F0AC
:101720008332A1F4232D20611DC08D3261F08033FE
:1017300069F4232D216016C0832D8260382EE32D9D
:10174000E4603E2E2AC0F32DF8601DC037FC2DC08A
:1017500020ED280F2A3040F08E32B9F436FC81C1DA
:10176000232D2064322E19C036FE06C08AE0989ED2
:10177000200D1124922E11C0EAE02E9E200D11247E
:10178000222EF32DF0623F2E08C08C3621F4832DDB
:101790008068382E02C0883641F4F70193FD8591A8
:1017A00093FF81917F018111B3CF982F9F7D955435
:1017B000933028F40C5F1F4F9FE399830DC083364D
:1017C00031F0833771F0833509F059C021C0F80139
:1017D000808189830E5F1F4F88248394912C53014D
:1017E00013C02801F2E04F0E511CF801A080B18017
:1017F00036FE03C0692D70E002C06FEF7FEFC501B8
:101800000E94460D4C018201F32DFF773F2E16C03A
:10181000280122E0420E511CF801A080B18036FE62
:1018200003C0692D70E002C06FEF7FEFC5010E9419
:101830003B0D4C01F32DF0683F2E820133FC1BC0A1
:10184000822D90E088169906B0F4B60180E290E00F
:101850000E94510D2A94F4CFF50137FC859137FE93
:1018600081915F01B60190E00E94510D21102A94F0
:1018700021E0821A91088114910471F7E8C084363E
:1018800011F0893641F5F80137FE07C0608171819A
:10189000828193810C5F1F4F08C060817181072E88
:1018A000000C880B990B0E5F1F4FF32DFF763F2E18
:1018B00097FF09C090958095709561957F4F8F4FE8
:1018C0009F4FF0683F2E2AE030E0A3010E948D0D6B
:1018D000882E861845C0853731F4232D2F7EB22EF1
:1018E0002AE030E025C0932D997FB92E8F36C1F0C4
:1018F00018F4883579F0B5C0803719F0883721F0B1
:10190000B0C0E92FE061BE2EB4FE0DC0FB2DF46027
:10191000BF2E09C034FE0AC0292F2660B22E06C091
:1019200028E030E005C020E130E002C020E132E0F4
:10193000F801B7FE07C060817181828193810C5FDD
:101940001F4F06C06081718180E090E00E5F1F4FE5
:10195000A3010E948D0D882E8618FB2DFF773F2E48
:1019600036FE0DC0232D2E7FA22E891458F434FE8E
:101970000BC032FC09C0832D8E7EA82E05C0B82C6A
:10198000A32C03C0B82C01C0B92CA4FE0FC0FE01CB
:10199000E80DF11D8081803321F49A2D997EA92EC6
:1019A00009C0A2FE06C0B394B39404C08A2D867801
:1019B00009F0B394A3FC11C0A0FE06C0B21488F4D1
:1019C000280C922C9B180EC0B21460F4B60180E271
:1019D00090E00E94510DB394F7CFB21418F42B1875
:1019E00002C0982C212CA4FE10C0B60180E390E028
:1019F0000E94510DA2FE17C0A1FC03C088E790E031
:101A000002C088E590E0B6010CC08A2D867859F0B6
:101A1000A1FE02C08BE201C080E2A7FC8DE2B6010C
:101A200090E00E94510D891438F4B60180E390E0F3
:101A30000E94510D9A94F7CF8A94F301E80DF11D9D
:101A40008081B60190E00E94510D8110F5CF2220D7
:101A500009F442CEB60180E290E00E94510D2A9432
:101A6000F6CFF6018681978102C08FEF9FEF2B960C
:101A7000E2E10C94070EFC010590615070400110EA
:101A8000D8F7809590958E0F9F1F0895FC016150A7
:101A9000704001900110D8F7809590958E0F9F1F90
:101AA00008950F931F93CF93DF93FB01238121FDB3
:101AB00003C08FEF9FEF2CC022FF16C046815781D5
:101AC000248135814217530744F4A081B1819D01DF
:101AD0002F5F3F4F318320838C93268137812F5F87
:101AE0003F4F3783268314C08B01EC01FB01008438
:101AF000F185E02D0995892BE1F6D80116968D9197
:101B00009C911797019617969C938E931697CE01EA
:101B1000DF91CF911F910F910895FA01AA272830E4
:101B200051F1203181F1E8946F936E7F6E5F7F4FAA
:101B30008F4F9F4FAF4FB1E03ED0B4E03CD0670F26
:101B4000781F891F9A1FA11D680F791F8A1F911D79
:101B5000A11D6A0F711D811D911DA11D20D009F4C9
:101B600068943F912AE0269F11243019305D31930B
:101B7000DEF6CF010895462F4770405D4193B3E0F4
:101B80000FD0C9F7F6CF462F4F70405D4A3318F09B
:101B9000495D31FD4052419302D0A9F7EACFB4E04C
:101BA000A6959795879577956795BA95C9F7009704
:101BB0006105710508959B01AC010A2E06945795A5
:101BC000479537952795BA95C9F7620F731F841FFC
:101BD000951FA01D08952F923F924F925F926F9292
:101BE0007F928F929F92AF92BF92CF92DF92EF92AD
:101BF000FF920F931F93CF93DF93CDB7DEB7CA1B2E
:101C0000DB0B0FB6F894DEBF0FBECDBF09942A8858
:101C1000398848885F846E847D848C849B84AA8400
:101C2000B984C884DF80EE80FD800C811B81AA818D
:101C3000B981CE0FD11D0FB6F894DEBF0FBECDBF58
:081C4000ED010895F894FFCFB7
:101C4800000048430D53595354454D20424F4F54BB
:101C58000D00446174614C656E4552520D00434B52
:101C68004552522E5B433A25645D5B523A25645DCA
:101C78005B4C3A25645D0D0025632C253033642CBC
:101C8800253034642C253034642C25642C253034DC
:0E1C9800642C00253033640D003132333400EB
:00000001FF
